:1000000019C033C032C0B4C030C02FC02EC02DC004
:100010002CC02BC02AC029C028C027C026C025C09C
:1000200024C0BAC022C021C020C01FC01EC01DC035
:100030001CC01BC011241FBECFEFD4E0DEBFCDBF5C
:1000400011E0A0E0B1E0EAE0F6E002C005900D9218
:10005000A030B107D9F721E0A0E0B1E001C01D92C6
:10006000AF31B207E1F7B1D1CEC2CACF0895613046
:1000700071058105910561F1623071058105910578
:1000800019F44093000108956330710581059105CD
:1000900019F44093010108956430710581059105BB
:1000A00019F44093020108956530710581059105A9
:1000B00079F4E0E0F1E0438380819181A281B38112
:1000C00080931B0190931C01A0931D01B0931E010E
:1000D0000895089560911B0170911C0180911D018C
:1000E00090911E01D5D0089560911B0170911C0163
:1000F00080911D0190911E01CBD0089560E070E0C9
:10010000CB01C6D0089510921701109218011092D9
:10011000190110921A01E5E0F1E086E390E0938383
:10012000828395838483978386838AE690E0918790
:10013000808784E790E0938782878EE790E09587B9
:10014000848787E390E09787868789E690E0918BA4
:10015000808B2298E8E6F0E0808181608083EBE686
:10016000F0E08081846080838CB5806C8CBD0895C4
:100170001F920F920FB60F9211241A9B08C0109273
:100180001701109218011092190110921A010F9084
:100190000FBE0F901F9018951F920F920FB60F92DF
:1001A00011242F933F934F935F936F937F938F937C
:1001B0009F93AF93BF93EF93FF934EB58091170139
:1001C00090911801A0911901B0911A01892B8A2BE5
:1001D0008B2B11F440930401E09104018FEF8E0FFB
:1001E000883048F0109217011092180110921901EE
:1001F00010921A011FC0F0E0EE0FFF1FEB5FFE4FE1
:100200000190F081E02D8091170190911801A0914B
:100210001901B0911A01BC01CD016F5F7F4F8F4F63
:100220009F4F609317017093180180931901909369
:100230001A010995FF91EF91BF91AF919F918F9115
:100240007F916F915F914F913F912F910F900FBED2
:100250000F901F90189583E580936600219AE0E83F
:10026000F0E0808183648083E1E8F0E08081886150
:10027000808380E090E0AAE7B4E480931B01909330
:100280001C01A0931D01B0931E0188E18083089595
:10029000CF92DF92EF92FF926B017C0120E030E081
:1002A000A901A0D0811104C088E18093810080C0A1
:1002B00020E030E048EB52E4C701B601A0D11816A7
:1002C00084F489E180938100A701960160E07BE1DD
:1002D00087EB9AE48BD0F2D070938900609388000A
:1002E00067C020E030E040E451E4C701B60187D1A7
:1002F000181684F48AE180938100A701960160E0DA
:100300007BE187E399E472D0D9D070938900609340
:1003100088004EC02CEE31E548EB5FE3C701B60123
:100320006ED1181684F48BE180938100A7019601A9
:1003300060E07BE187EB97E459D0C0D070938900EF
:100340006093880035C02CEE31E548EB5EE3C701D1
:10035000B60155D1181684F48CE180938100A70171
:10036000960160E07BE187EB96E440D0A7D07093E4
:100370008900609388001CC02CEE31E548EB5DE3FA
:10038000C701B6013CD1181684F48DE18093810039
:10039000A701960160E07BE187EB95E427D08ED042
:1003A000709389006093880003C088E18093810086
:1003B000FF90EF90DF90CF9008958BB184668BB95A
:1003C0008AB18C678AB9289A0895F894F6DF43DFDA
:1003D000219A99DE789487EB9BE00197F1F700C0B2
:1003E0000000F9CF97D008F481E008950CD0CDC07B
:1003F000C5D040F0BCD030F021F45F3F19F0AEC062
:100400005111F7C0B1C0D2D098F39923C9F3552345
:10041000B1F3951B550BBB27AA27621773078407F7
:1004200038F09F5F5F4F220F331F441FAA1FA9F3AD
:1004300033D00E2E3AF0E0E830D091505040E6959F
:10044000001CCAF729D0FE2F27D0660F771F881F00
:10045000BB1F261737074807AB07B0E809F0BB0BEF
:10046000802DBF01FF2793585F4F2AF09E3F510513
:1004700068F074C0BEC05F3FECF3983EDCF3869535
:1004800077956795B795F7959F5FC9F7880F911D89
:100490009695879597F90895E1E0660F771F881F75
:1004A000BB1F621773078407BA0720F0621B730B28
:1004B000840BBA0BEE1F88F7E09508957FD088F083
:1004C0009F5790F0B92F9927B751A0F0D1F0660F40
:1004D000771F881F991F1AF0BA95C9F712C0B1305B
:1004E00081F086D0B1E0089583C0672F782F8827E8
:1004F000B85F39F0B93FCCF3869577956795B3959A
:10050000D9F73EF490958095709561957F4F8F4F08
:100510009F4F0895990F0008550FAA0BE0E8FEEFD2
:1005200016161706E807F907C0F012161306E407B7
:10053000F50798F0621B730B840B950B39F40A26B0
:1005400061F0232B242B252B21F408950A2609F48E
:10055000A140A6958FEF811D811D089597F99F6792
:1005600080E870E060E008959FEF80EC089500243B
:100570000A941616170618060906089500240A9408
:1005800012161306140605060895092E0394000C8E
:1005900011F4882352F0BB0F40F4BF2B11F460FF1D
:1005A00004C06F5F7F4F8F4F9F4F089557FD905846
:1005B000440F551F59F05F3F71F04795880F97FB27
:1005C000991F61F09F3F79F08795089512161306E1
:1005D0001406551FF2CF4695F1DF08C01616170610
:1005E0001806991FF1CF8695710561050894089545
:1005F000E894BB2766277727CB0197F908958ADF10
:0A06000008F48FEF0895F894FFCF7F
:00000001FF
