:1000000019C033C032C0EBC030C02FC02EC02DC0CD
:100010002CC02BC02AC029C028C027C026C025C09C
:1000200024C0F1C022C021C020C01FC01EC01DC0FE
:100030001CC01BC011241FBECFEFD4E0DEBFCDBF5C
:1000400011E0A0E0B1E0EEE1FAE002C005900D920F
:10005000A230B107D9F721E0A2E0B1E001C01D92C2
:10006000AA33B207E1F708D3D8C4CACF8FE380938D
:100070007E00EAE7F0E080818760808380EC8093F7
:100080007C008081806880830895CF93DF931F92E6
:10009000CDB7DEB789838981806C80937C00EAE7E5
:1000A000F0E08081806180838081806480838081B2
:1000B00084FFFDCF809178002091790090E0922B11
:1000C0000F90DF91CF9108950895613071058105FA
:1000D000910561F1623071058105910519F4409334
:1000E00002010895633071058105910519F440936B
:1000F00003010895643071058105910519F4409359
:1001000004010895653071058105910579F4E2E0F7
:10011000F1E0438380819181A281B38180930801C2
:1001200090930901A0930A01B0930B010895609187
:1001300008017091090180910A0190910B01DFD0B3
:100140000895609108017091090180910A019091D0
:100150000B01D5D0089560E070E0CB01D0D00895B8
:1001600061507109FB01EE5DFE4F808180958EBD6F
:10017000089510921E0110921F01109220011092FA
:100180002101ECE0F1E084E690E0938382839583A3
:1001900084839783868387E990E09187808781EACB
:1001A00090E0938782878BEA90E09587848785E645
:1001B00090E09787868780EB90E0918B808B249AE4
:1001C0002298E8E6F0E0808181608083EBE6F0E051
:1001D0008081846080838CB5806C8CBD08951F9273
:1001E0000F920FB60F9211241A9B08C010921E0195
:1001F00010921F0110922001109221010F900FBE4A
:100200000F901F9018951F920F920FB60F92112406
:100210002F933F934F935F936F937F938F939F930E
:10022000AF93BF93EF93FF934EB580911E019091D2
:100230001F01A0912001B0912101892B8A2B8B2BCA
:1002400011F440930601E09106018FEF8E0F883084
:1002500048F010921E0110921F011092200110927E
:1002600021011FC0F0E0EE0FFF1FE45FFE4F019081
:10027000F081E02D80911E0190911F01A09120013D
:10028000B0912101BC01CD016F5F7F4F8F4F9F4F18
:1002900060931E0170931F018093200190932101B0
:1002A0000995FF91EF91BF91AF919F918F917F91B0
:1002B0006F915F914F913F912F910F900FBE0F90D3
:1002C0001F90189583E580936600219AE0E8F0E09E
:1002D000808183648083E1E8F0E0808188618083AD
:1002E00080E090E0AAE7B4E48093080190930901CC
:1002F000A0930A01B0930B0188E180830895CF9207
:10030000DF92EF92FF926B017C0120E030E0A901C7
:10031000D3D1811104C088E18093810080C020E0A6
:1003200030E048EB52E4C701B60110D3181684F44C
:1003300089E180938100A701960160E07BE187EB72
:100340009AE4BED125D2709389006093880067C07B
:1003500020E030E040E451E4C701B601F7D21816BE
:1003600084F48AE180938100A701960160E07BE13B
:1003700087E399E4A5D10CD270938900609388003B
:100380004EC02CEE31E548EB5FE3C701B601DED28B
:10039000181684F48BE180938100A701960160E038
:1003A0007BE187EB97E48CD1F3D170938900609364
:1003B000880035C02CEE31E548EB5EE3C701B6019D
:1003C000C5D2181684F48CE180938100A7019601B0
:1003D00060E07BE187EB96E473D1DAD1709389001A
:1003E000609388001CC02CEE31E548EB5DE3C7014B
:1003F000B601ACD2181684F48DE180938100A70178
:10040000960160E07BE187EB95E45AD1C1D170930E
:1004100089006093880003C088E180938100FF9089
:10042000EF90DF90CF900895E2E2F1E080E090E07D
:10043000A0EAB0E480839183A283B38343E353E3D0
:1004400063E570E444835583668377831086118661
:100450001286138646E656E666E870E444875587BA
:1004600066877787808B918BA28BB38B80E090E03F
:10047000A0E4B1E4848B958BA68BB78B8BB184669B
:100480008BB98AB18C678AB9289A0895CF93DF9384
:1004900000D000D000D0CDB7DEB780910701F5DDE8
:1004A0009A83898380910701823009F44BC028F434
:1004B000882361F0813041F1AEC0843009F47EC000
:1004C00008F45EC0853009F482C0A5C069817A81D4
:1004D00080E090E089D12DEC3CEC4CE85FE33AD22F
:1004E00020E030E040E85AE335D220E030E040E25E
:1004F00051E4E6D020E030E048EB52E42BD26B83AD
:100500007C838D839E836BC069817A8180E090E0DB
:100510006BD12DEC3CEC4CE85FE31CD220E030E0EA
:1005200040E85AE317D220E030E040E251E4C8D07E
:1005300020E030E048EB52E40DD26B837C838D8366
:100540009E834DC069817A8180E090E04DD12DEC91
:100550003CEC4CE85FE3FED120E030E040E85AE3B9
:10056000F9D120E030E040E251E4AAD020E030E0D0
:1005700040EA51E4EFD16B837C838D839E832FC04F
:1005800069817A8180E090E02FD12DEC3CEC4CE841
:100590005FE3E0D120E030E040E85AE3DBD120E047
:1005A00030E040E251E48CD020E030E048EB52E40F
:1005B000D1D16B837C838D839E8311C080E090E0DA
:1005C000A0EAB0E48B839C83AD83BE8308C080E047
:1005D00090E0A0E4B1E48B839C83AD83BE83E09183
:1005E0000701F0E08B819C81AD81BE81EE0FFF1F82
:1005F000EE0FFF1FEE5DFE4F80839183A283B383D6
:10060000809107018F5F80930701809107018630F9
:1006100011F41092070126960FB6F894DEBF0FBEB4
:10062000CDBFDF91CF91089518990EC08091000140
:10063000909101018C3B22E0920709F00196909382
:1006400001018093000108958091000190910101C2
:100650008C3B924061F49BB180E289278BB983B7D0
:10066000817F846083BF83B7816083BF8895109248
:100670000101109200010895F894F8DCD5DE22DE25
:10068000219A77DD7894C2E2D1E000DF6C857D8528
:100690008E859F8520E030E040E450E40DD0882333
:1006A00014F45D9801C05D9ABFDF87EB9BE0019772
:1006B000F1F700C00000E9CFD4D008F481E008953C
:1006C0000CD00AC102D140F0F9D030F021F45F3FE4
:1006D00019F0EBC0511134C1EEC00FD198F399233A
:1006E000C9F35523B1F3951B550BBB27AA276217F6
:1006F0007307840738F09F5F5F4F220F331F441F3B
:10070000AA1FA9F333D00E2E3AF0E0E830D0915072
:100710005040E695001CCAF729D0FE2F27D0660F5F
:10072000771F881FBB1F261737074807AB07B0E89E
:1007300009F0BB0B802DBF01FF2793585F4F2AF0B4
:100740009E3F510568F0B1C0FBC05F3FECF3983E9F
:10075000DCF3869577956795B795F7959F5FC9F711
:10076000880F911D9695879597F90895E1E0660F9A
:10077000771F881FBB1F621773078407BA0720F013
:10078000621B730B840BBA0BEE1F88F7E09508957C
:10079000BCD088F09F5790F0B92F9927B751A0F09F
:1007A000D1F0660F771F881F991F1AF0BA95C9F705
:1007B00012C0B13081F0C3D0B1E00895C0C0672F3E
:1007C000782F8827B85F39F0B93FCCF386957795B5
:1007D0006795B395D9F73EF490958095709561959E
:1007E0007F4F8F4F9F4F0895E89409C097FB3EF4C9
:1007F00090958095709561957F4F8F4F9F4F99236E
:10080000A9F0F92F96E9BB279395F69587957795EB
:100810006795B795F111F8CFFAF4BB0F11F460FFAB
:100820001BC06F5F7F4F8F4F9F4F16C0882311F003
:1008300096E911C0772321F09EE8872F762F05C017
:10084000662371F096E8862F70E060E02AF09A95B2
:10085000660F771F881FDAF7880F9695879597F9A7
:100860000895990F0008550FAA0BE0E8FEEF161641
:100870001706E807F907C0F012161306E407F50794
:1008800098F0621B730B840B950B39F40A2661F008
:10089000232B242B252B21F408950A2609F4A140AB
:1008A000A6958FEF811D811D089597F99F6780E8B8
:1008B00070E060E008959FEF80EC089500240A94B2
:1008C0001616170618060906089500240A9412162B
:1008D0001306140605060895092E0394000C11F45E
:1008E000882352F0BB0F40F4BF2B11F460FF04C00B
:1008F0006F5F7F4F8F4F9F4F089557FD9058440F64
:10090000551F59F05F3F71F04795880F97FB991F6E
:1009100061F09F3F79F0879508951216130614062B
:10092000551FF2CF4695F1DF08C0161617061806B8
:10093000991FF1CF86957105610508940895E89493
:10094000BB2766277727CB0197F908958ADF08F43C
:100950008FEF08950BD0C0CFB1DF28F0B6DF18F0CD
:10096000952309F0A2CFA7CF1124EACFC6DFA0F3C9
:10097000959FD1F3950F50E0551F629FF001729F34
:10098000BB27F00DB11D639FAA27F00DB11DAA1F53
:10099000649F6627B00DA11D661F829F2227B00DA0
:1009A000A11D621F739FB00DA11D621F839FA00D2B
:1009B000611D221F749F3327A00D611D231F849F7B
:1009C000600D211D822F762F6A2F11249F575040D2
:1009D0008AF0E1F088234AF0EE0FFF1FBB1F661F6D
:1009E000771F881F91505040A9F79E3F510570F026
:1009F0005CCFA6CF5F3FECF3983EDCF3869577950E
:100A00006795B795F795E7959F5FC1F7FE2B880F20
:0E0A1000911D9695879597F90895F894FFCF5C
:020A1E00BD0217
:00000001FF
